{"abi":[{"type":"constructor","inputs":[],"stateMutability":"nonpayable"},{"type":"function","name":"approve","inputs":[{"name":"to","type":"address","internalType":"address"},{"name":"tokenId","type":"uint256","internalType":"uint256"}],"outputs":[],"stateMutability":"nonpayable"},{"type":"function","name":"balanceOf","inputs":[{"name":"owner","type":"address","internalType":"address"}],"outputs":[{"name":"","type":"uint256","internalType":"uint256"}],"stateMutability":"view"},{"type":"function","name":"createReceipt","inputs":[{"name":"_recipient","type":"address","internalType":"address"},{"name":"tokenURI","type":"string","internalType":"string"},{"name":"_payloadHash","type":"bytes32","internalType":"bytes32"},{"name":"_routingInfo","type":"string","internalType":"string"},{"name":"_info","type":"tuple","internalType":"struct Gateway.ExecutionInfo","components":[{"name":"user_key","type":"bytes","internalType":"bytes"},{"name":"user_pubkey","type":"bytes","internalType":"bytes"},{"name":"routing_code_hash","type":"string","internalType":"string"},{"name":"task_destination_network","type":"string","internalType":"string"},{"name":"handle","type":"string","internalType":"string"},{"name":"nonce","type":"bytes12","internalType":"bytes12"},{"name":"callback_gas_limit","type":"uint32","internalType":"uint32"},{"name":"payload","type":"bytes","internalType":"bytes"},{"name":"payload_signature","type":"bytes","internalType":"bytes"}]}],"outputs":[{"name":"","type":"uint256","internalType":"uint256"}],"stateMutability":"payable"},{"type":"function","name":"getApproved","inputs":[{"name":"tokenId","type":"uint256","internalType":"uint256"}],"outputs":[{"name":"","type":"address","internalType":"address"}],"stateMutability":"view"},{"type":"function","name":"getLastTokenId","inputs":[],"outputs":[{"name":"","type":"uint256","internalType":"uint256"}],"stateMutability":"view"},{"type":"function","name":"getSenderAndRecipient","inputs":[{"name":"tokenId","type":"uint256","internalType":"uint256"}],"outputs":[{"name":"","type":"address","internalType":"address"},{"name":"","type":"address","internalType":"address"}],"stateMutability":"view"},{"type":"function","name":"isApprovedForAll","inputs":[{"name":"owner","type":"address","internalType":"address"},{"name":"operator","type":"address","internalType":"address"}],"outputs":[{"name":"","type":"bool","internalType":"bool"}],"stateMutability":"view"},{"type":"function","name":"name","inputs":[],"outputs":[{"name":"","type":"string","internalType":"string"}],"stateMutability":"view"},{"type":"function","name":"ownerOf","inputs":[{"name":"tokenId","type":"uint256","internalType":"uint256"}],"outputs":[{"name":"","type":"address","internalType":"address"}],"stateMutability":"view"},{"type":"function","name":"reveal","inputs":[{"name":"","type":"uint256","internalType":"uint256"}],"outputs":[{"name":"","type":"address","internalType":"address"}],"stateMutability":"view"},{"type":"function","name":"revealData","inputs":[{"name":"tokenId","type":"uint256","internalType":"uint256"},{"name":"_payloadHash","type":"bytes32","internalType":"bytes32"},{"name":"_routingInfo","type":"string","internalType":"string"},{"name":"_info","type":"tuple","internalType":"struct Gateway.ExecutionInfo","components":[{"name":"user_key","type":"bytes","internalType":"bytes"},{"name":"user_pubkey","type":"bytes","internalType":"bytes"},{"name":"routing_code_hash","type":"string","internalType":"string"},{"name":"task_destination_network","type":"string","internalType":"string"},{"name":"handle","type":"string","internalType":"string"},{"name":"nonce","type":"bytes12","internalType":"bytes12"},{"name":"callback_gas_limit","type":"uint32","internalType":"uint32"},{"name":"payload","type":"bytes","internalType":"bytes"},{"name":"payload_signature","type":"bytes","internalType":"bytes"}]}],"outputs":[],"stateMutability":"payable"},{"type":"function","name":"safeTransferFrom","inputs":[{"name":"from","type":"address","internalType":"address"},{"name":"to","type":"address","internalType":"address"},{"name":"tokenId","type":"uint256","internalType":"uint256"}],"outputs":[],"stateMutability":"nonpayable"},{"type":"function","name":"safeTransferFrom","inputs":[{"name":"from","type":"address","internalType":"address"},{"name":"to","type":"address","internalType":"address"},{"name":"tokenId","type":"uint256","internalType":"uint256"},{"name":"data","type":"bytes","internalType":"bytes"}],"outputs":[],"stateMutability":"nonpayable"},{"type":"function","name":"setApprovalForAll","inputs":[{"name":"operator","type":"address","internalType":"address"},{"name":"approved","type":"bool","internalType":"bool"}],"outputs":[],"stateMutability":"nonpayable"},{"type":"function","name":"supportsInterface","inputs":[{"name":"interfaceId","type":"bytes4","internalType":"bytes4"}],"outputs":[{"name":"","type":"bool","internalType":"bool"}],"stateMutability":"view"},{"type":"function","name":"symbol","inputs":[],"outputs":[{"name":"","type":"string","internalType":"string"}],"stateMutability":"view"},{"type":"function","name":"task_destination_network","inputs":[],"outputs":[{"name":"","type":"string","internalType":"string"}],"stateMutability":"view"},{"type":"function","name":"tokenURI","inputs":[{"name":"tokenId","type":"uint256","internalType":"uint256"}],"outputs":[{"name":"","type":"string","internalType":"string"}],"stateMutability":"view"},{"type":"function","name":"transferFrom","inputs":[{"name":"from","type":"address","internalType":"address"},{"name":"to","type":"address","internalType":"address"},{"name":"tokenId","type":"uint256","internalType":"uint256"}],"outputs":[],"stateMutability":"nonpayable"},{"type":"event","name":"Approval","inputs":[{"name":"owner","type":"address","indexed":true,"internalType":"address"},{"name":"approved","type":"address","indexed":true,"internalType":"address"},{"name":"tokenId","type":"uint256","indexed":true,"internalType":"uint256"}],"anonymous":false},{"type":"event","name":"ApprovalForAll","inputs":[{"name":"owner","type":"address","indexed":true,"internalType":"address"},{"name":"operator","type":"address","indexed":true,"internalType":"address"},{"name":"approved","type":"bool","indexed":false,"internalType":"bool"}],"anonymous":false},{"type":"event","name":"BatchMetadataUpdate","inputs":[{"name":"_fromTokenId","type":"uint256","indexed":false,"internalType":"uint256"},{"name":"_toTokenId","type":"uint256","indexed":false,"internalType":"uint256"}],"anonymous":false},{"type":"event","name":"MetadataUpdate","inputs":[{"name":"_tokenId","type":"uint256","indexed":false,"internalType":"uint256"}],"anonymous":false},{"type":"event","name":"RevealEvent","inputs":[{"name":"tokenId","type":"uint256","indexed":true,"internalType":"uint256"},{"name":"recipient","type":"address","indexed":true,"internalType":"address"}],"anonymous":false},{"type":"event","name":"Transfer","inputs":[{"name":"from","type":"address","indexed":true,"internalType":"address"},{"name":"to","type":"address","indexed":true,"internalType":"address"},{"name":"tokenId","type":"uint256","indexed":true,"internalType":"uint256"}],"anonymous":false},{"type":"error","name":"ERC721IncorrectOwner","inputs":[{"name":"sender","type":"address","internalType":"address"},{"name":"tokenId","type":"uint256","internalType":"uint256"},{"name":"owner","type":"address","internalType":"address"}]},{"type":"error","name":"ERC721InsufficientApproval","inputs":[{"name":"operator","type":"address","internalType":"address"},{"name":"tokenId","type":"uint256","internalType":"uint256"}]},{"type":"error","name":"ERC721InvalidApprover","inputs":[{"name":"approver","type":"address","internalType":"address"}]},{"type":"error","name":"ERC721InvalidOperator","inputs":[{"name":"operator","type":"address","internalType":"address"}]},{"type":"error","name":"ERC721InvalidOwner","inputs":[{"name":"owner","type":"address","internalType":"address"}]},{"type":"error","name":"ERC721InvalidReceiver","inputs":[{"name":"receiver","type":"address","internalType":"address"}]},{"type":"error","name":"ERC721InvalidSender","inputs":[{"name":"sender","type":"address","internalType":"address"}]},{"type":"error","name":"ERC721NonexistentToken","inputs":[{"name":"tokenId","type":"uint256","internalType":"uint256"}]}],"bytecode":{"object":"0x60a0604052738eaab5e8551781f3e8eb745e7fcc7daeefd27b1f60805234801561002857600080fd5b50604051806040016040528060128152602001711058dadb9bdddb195919d9549958d95a5c1d60721b8152506040518060400160405280600381526020016210549560ea1b815250816000908161007f9190610145565b50600161008c8282610145565b5050600c80546001600160a01b0319163317905550610203565b634e487b7160e01b600052604160045260246000fd5b600181811c908216806100d057607f821691505b6020821081036100f057634e487b7160e01b600052602260045260246000fd5b50919050565b601f82111561014057806000526020600020601f840160051c8101602085101561011d5750805b601f840160051c820191505b8181101561013d5760008155600101610129565b50505b505050565b81516001600160401b0381111561015e5761015e6100a6565b6101728161016c84546100bc565b846100f6565b6020601f8211600181146101a6576000831561018e5750848201515b600019600385901b1c1916600184901b17845561013d565b600084815260208120601f198516915b828110156101d657878501518255602094850194600190920191016101b6565b50848210156101f45786840151600019600387901b60f8161c191681555b50505050600190811b01905550565b608051611a22610225600039600081816107b601526109220152611a226000f3fe6080604052600436106101145760003560e01c806383c4c00d116100a0578063c2ca0ac511610064578063c2ca0ac51461035d578063c87b56dd14610393578063dfd1b5f3146103b3578063e985e9c5146103c6578063f701f1ba146103e657600080fd5b806383c4c00d146102bf57806395d89b41146102d457806397ed0644146102e9578063a22cb4651461031d578063b88d4fde1461033d57600080fd5b806323b872dd116100e757806323b872dd146101ca57806342842e0e146101ea5780634d1f00b61461020a5780636352211e1461027157806370a082311461029157600080fd5b806301ffc9a71461011957806306fdde031461014e578063081812fc14610170578063095ea7b3146101a8575b600080fd5b34801561012557600080fd5b50610139610134366004611186565b6103f9565b60405190151581526020015b60405180910390f35b34801561015a57600080fd5b50610163610424565b60405161014591906111f3565b34801561017c57600080fd5b5061019061018b366004611206565b6104b6565b6040516001600160a01b039091168152602001610145565b3480156101b457600080fd5b506101c86101c336600461123b565b6104df565b005b3480156101d657600080fd5b506101c86101e5366004611265565b6104ee565b3480156101f657600080fd5b506101c8610205366004611265565b61057e565b34801561021657600080fd5b50610251610225366004611206565b6000908152600860209081526040808320546009909252909120546001600160a01b0391821692911690565b604080516001600160a01b03938416815292909116602083015201610145565b34801561027d57600080fd5b5061019061028c366004611206565b61059e565b34801561029d57600080fd5b506102b16102ac3660046112a2565b6105a9565b604051908152602001610145565b3480156102cb57600080fd5b506007546102b1565b3480156102e057600080fd5b506101636105f1565b3480156102f557600080fd5b506101636040518060400160405280600881526020016770756c7361722d3360c01b81525081565b34801561032957600080fd5b506101c86103383660046112bd565b610600565b34801561034957600080fd5b506101c8610358366004611389565b61060b565b34801561036957600080fd5b50610190610378366004611206565b600a602052600090815260409020546001600160a01b031681565b34801561039f57600080fd5b506101636103ae366004611206565b610622565b6101c86103c1366004611467565b610733565b3480156103d257600080fd5b506101396103e13660046114e9565b610876565b6102b16103f436600461151c565b6108a4565b60006001600160e01b03198216632483248360e11b148061041e575061041e826109b4565b92915050565b606060008054610433906115e3565b80601f016020809104026020016040519081016040528092919081815260200182805461045f906115e3565b80156104ac5780601f10610481576101008083540402835291602001916104ac565b820191906000526020600020905b81548152906001019060200180831161048f57829003601f168201915b5050505050905090565b60006104c182610a04565b506000828152600460205260409020546001600160a01b031661041e565b6104ea828233610a3d565b5050565b6001600160a01b03821661051d57604051633250574960e11b8152600060048201526024015b60405180910390fd5b600061052a838333610a4a565b9050836001600160a01b0316816001600160a01b031614610578576040516364283d7b60e01b81526001600160a01b0380861660048301526024820184905282166044820152606401610514565b50505050565b6105998383836040518060200160405280600081525061060b565b505050565b600061041e82610a04565b60006001600160a01b0382166105d5576040516322718ad960e21b815260006004820152602401610514565b506001600160a01b031660009081526003602052604090205490565b606060018054610433906115e3565b6104ea338383610b43565b6106168484846104ee565b61057884848484610be2565b606061062d82610a04565b5060008281526006602052604081208054610647906115e3565b80601f0160208091040260200160405190810160405280929190818152602001828054610673906115e3565b80156106c05780601f10610695576101008083540402835291602001916106c0565b820191906000526020600020905b8154815290600101906020018083116106a357829003601f168201915b5050505050905060006106de60408051602081019091526000815290565b905080516000036106f0575092915050565b81511561072257808260405160200161070a929190611617565b60405160208183030381529060405292505050919050565b61072b84610d0b565b949350505050565b6000858152600260205260409020546001600160a01b031633146107855760405162461bcd60e51b81526020600482015260096024820152682727aa2fa7aba722a960b91b6044820152606401610514565b6000858152600a60205260409081902080546001600160a01b0319163390811790915590516339624a6b60e21b81527f0000000000000000000000000000000000000000000000000000000000000000916001600160a01b0383169163e58929ac9134916107fd918a918a908a908a906004016116e1565b60206040518083038185885af115801561081b573d6000803e3d6000fd5b50505050506040513d601f19601f82011682018060405250810190610840919061184c565b50604051339087907f43d642ba9f6bc38bb1899907cd24fb61089adcc8c433957a7fe2fb5a5aac19c990600090a3505050505050565b6001600160a01b03918216600090815260056020908152604080832093909416825291909152205460ff1690565b60078054600091829190826108b883611865565b9190505590506108c88882610d80565b6108d28188610de5565b600081815260086020908152604080832080546001600160a01b03199081163390811790925560099093529281902080546001600160a01b038d811691909416179055516339624a6b60e21b81527f0000000000000000000000000000000000000000000000000000000000000000929183169163e58929ac913491610963918c91908c908c908c906004016116e1565b60206040518083038185885af1158015610981573d6000803e3d6000fd5b50505050506040513d601f19601f820116820180604052508101906109a6919061184c565b509098975050505050505050565b60006001600160e01b031982166380ac58cd60e01b14806109e557506001600160e01b03198216635b5e139f60e01b145b8061041e57506301ffc9a760e01b6001600160e01b031983161461041e565b6000818152600260205260408120546001600160a01b03168061041e57604051637e27328960e01b815260048101849052602401610514565b6105998383836001610e35565b6000828152600260205260408120546001600160a01b0390811690831615610a7757610a77818486610f3b565b6001600160a01b03811615610ab557610a94600085600080610e35565b6001600160a01b038116600090815260036020526040902080546000190190555b6001600160a01b03851615610ae4576001600160a01b0385166000908152600360205260409020805460010190555b60008481526002602052604080822080546001600160a01b0319166001600160a01b0389811691821790925591518793918516917fddf252ad1be2c89b69c2b068fc378daa952ba7f163c4a11628f55a4df523b3ef91a4949350505050565b6001600160a01b038216610b7557604051630b61174360e31b81526001600160a01b0383166004820152602401610514565b6001600160a01b03838116600081815260056020908152604080832094871680845294825291829020805460ff191686151590811790915591519182527f17307eab39ab6107e8899845ad3d59bd9653f200f220920489ca2b5937696c31910160405180910390a3505050565b6001600160a01b0383163b1561057857604051630a85bd0160e11b81526001600160a01b0384169063150b7a0290610c2490339088908790879060040161188c565b6020604051808303816000875af1925050508015610c5f575060408051601f3d908101601f19168201909252610c5c918101906118c9565b60015b610cc8573d808015610c8d576040519150601f19603f3d011682016040523d82523d6000602084013e610c92565b606091505b508051600003610cc057604051633250574960e11b81526001600160a01b0385166004820152602401610514565b805181602001fd5b6001600160e01b03198116630a85bd0160e11b14610d0457604051633250574960e11b81526001600160a01b0385166004820152602401610514565b5050505050565b6060610d1682610a04565b506000610d2e60408051602081019091526000815290565b90506000815111610d4e5760405180602001604052806000815250610d79565b80610d5884610f9f565b604051602001610d69929190611617565b6040516020818303038152906040525b9392505050565b6001600160a01b038216610daa57604051633250574960e11b815260006004820152602401610514565b6000610db883836000610a4a565b90506001600160a01b03811615610599576040516339e3563760e11b815260006004820152602401610514565b6000828152600660205260409020610dfd828261192d565b506040518281527ff8e1a15aba9398e019f0b49df1a4fde98ee17ae345cb5f6b5e2c27f5033e8ce79060200160405180910390a15050565b8080610e4957506001600160a01b03821615155b15610f0b576000610e5984610a04565b90506001600160a01b03831615801590610e855750826001600160a01b0316816001600160a01b031614155b8015610e985750610e968184610876565b155b15610ec15760405163a9fbf51f60e01b81526001600160a01b0384166004820152602401610514565b8115610f095783856001600160a01b0316826001600160a01b03167f8c5be1e5ebec7d5bd14f71427d1e84f3dd0314c0f7b2291e5b200ac8c7c3b92560405160405180910390a45b505b5050600090815260046020526040902080546001600160a01b0319166001600160a01b0392909216919091179055565b610f46838383611032565b610599576001600160a01b038316610f7457604051637e27328960e01b815260048101829052602401610514565b60405163177e802f60e01b81526001600160a01b038316600482015260248101829052604401610514565b60606000610fac83611095565b600101905060008167ffffffffffffffff811115610fcc57610fcc6112f9565b6040519080825280601f01601f191660200182016040528015610ff6576020820181803683370190505b5090508181016020015b600019016f181899199a1a9b1b9c1cb0b131b232b360811b600a86061a8153600a850494508461100057509392505050565b60006001600160a01b0383161580159061072b5750826001600160a01b0316846001600160a01b0316148061106c575061106c8484610876565b8061072b5750506000908152600460205260409020546001600160a01b03908116911614919050565b60008072184f03e93ff9f4daa797ed6e38ed64bf6a1f0160401b83106110d45772184f03e93ff9f4daa797ed6e38ed64bf6a1f0160401b830492506040015b6d04ee2d6d415b85acef81000000008310611100576d04ee2d6d415b85acef8100000000830492506020015b662386f26fc10000831061111e57662386f26fc10000830492506010015b6305f5e1008310611136576305f5e100830492506008015b612710831061114a57612710830492506004015b6064831061115c576064830492506002015b600a831061041e5760010192915050565b6001600160e01b03198116811461118357600080fd5b50565b60006020828403121561119857600080fd5b8135610d798161116d565b60005b838110156111be5781810151838201526020016111a6565b50506000910152565b600081518084526111df8160208601602086016111a3565b601f01601f19169290920160200192915050565b602081526000610d7960208301846111c7565b60006020828403121561121857600080fd5b5035919050565b80356001600160a01b038116811461123657600080fd5b919050565b6000806040838503121561124e57600080fd5b6112578361121f565b946020939093013593505050565b60008060006060848603121561127a57600080fd5b6112838461121f565b92506112916020850161121f565b929592945050506040919091013590565b6000602082840312156112b457600080fd5b610d798261121f565b600080604083850312156112d057600080fd5b6112d98361121f565b9150602083013580151581146112ee57600080fd5b809150509250929050565b634e487b7160e01b600052604160045260246000fd5b60008067ffffffffffffffff84111561132a5761132a6112f9565b50604051601f19601f85018116603f0116810181811067ffffffffffffffff82111715611359576113596112f9565b60405283815290508082840185101561137157600080fd5b83836020830137600060208583010152509392505050565b6000806000806080858703121561139f57600080fd5b6113a88561121f565b93506113b66020860161121f565b925060408501359150606085013567ffffffffffffffff8111156113d957600080fd5b8501601f810187136113ea57600080fd5b6113f98782356020840161130f565b91505092959194509250565b60008083601f84011261141757600080fd5b50813567ffffffffffffffff81111561142f57600080fd5b60208301915083602082850101111561144757600080fd5b9250929050565b6000610120828403121561146157600080fd5b50919050565b60008060008060006080868803121561147f57600080fd5b8535945060208601359350604086013567ffffffffffffffff8111156114a457600080fd5b6114b088828901611405565b909450925050606086013567ffffffffffffffff8111156114d057600080fd5b6114dc8882890161144e565b9150509295509295909350565b600080604083850312156114fc57600080fd5b6115058361121f565b91506115136020840161121f565b90509250929050565b60008060008060008060a0878903121561153557600080fd5b61153e8761121f565b9550602087013567ffffffffffffffff81111561155a57600080fd5b8701601f8101891361156b57600080fd5b61157a8982356020840161130f565b95505060408701359350606087013567ffffffffffffffff81111561159e57600080fd5b6115aa89828a01611405565b909450925050608087013567ffffffffffffffff8111156115ca57600080fd5b6115d689828a0161144e565b9150509295509295509295565b600181811c908216806115f757607f821691505b60208210810361146157634e487b7160e01b600052602260045260246000fd5b600083516116298184602088016111a3565b83519083019061163d8183602088016111a3565b01949350505050565b81835281816020850137506000828201602090810191909152601f909101601f19169091010190565b6000808335601e1984360301811261168657600080fd5b830160208101925035905067ffffffffffffffff8111156116a657600080fd5b80360382131561144757600080fd5b80356001600160a01b03198116811461123657600080fd5b803563ffffffff8116811461123657600080fd5b8581526001600160a01b038516602082015260806040820181905260009061170c9083018587611646565b828103606084015261171e848561166f565b610120835261173261012084018284611646565b915050611742602086018661166f565b8383036020850152611755838284611646565b92505050611766604086018661166f565b8383036040850152611779838284611646565b9250505061178a606086018661166f565b838303606085015261179d838284611646565b925050506117ae608086018661166f565b83830360808501526117c1838284611646565b925050506117d160a086016116b5565b6001600160a01b03191660a08301526117ec60c086016116cd565b63ffffffff1660c083015261180460e086018661166f565b83830360e0850152611817838284611646565b9250505061182961010086018661166f565b83830361010085015261183d838284611646565b9b9a5050505050505050505050565b60006020828403121561185e57600080fd5b5051919050565b60006001820161188557634e487b7160e01b600052601160045260246000fd5b5060010190565b6001600160a01b03858116825284166020820152604081018390526080606082018190526000906118bf908301846111c7565b9695505050505050565b6000602082840312156118db57600080fd5b8151610d798161116d565b601f82111561059957806000526020600020601f840160051c8101602085101561190d5750805b601f840160051c820191505b81811015610d045760008155600101611919565b815167ffffffffffffffff811115611947576119476112f9565b61195b8161195584546115e3565b846118e6565b6020601f82116001811461198f57600083156119775750848201515b600019600385901b1c1916600184901b178455610d04565b600084815260208120601f198516915b828110156119bf578785015182556020948501946001909201910161199f565b50848210156119dd5786840151600019600387901b60f8161c191681555b50505050600190811b0190555056fea2646970667358221220f1ca3f1f83a76604ee0f93854ea3dc5dcbada4cd0b526cc97c0951e4af8db4ef64736f6c634300081a0033","linkReferences":{}},"methodIdentifiers":{"approve(address,uint256)":"095ea7b3","balanceOf(address)":"70a08231","createReceipt(address,string,bytes32,string,(bytes,bytes,string,string,string,bytes12,uint32,bytes,bytes))":"f701f1ba","getApproved(uint256)":"081812fc","getLastTokenId()":"83c4c00d","getSenderAndRecipient(uint256)":"4d1f00b6","isApprovedForAll(address,address)":"e985e9c5","name()":"06fdde03","ownerOf(uint256)":"6352211e","reveal(uint256)":"c2ca0ac5","revealData(uint256,bytes32,string,(bytes,bytes,string,string,string,bytes12,uint32,bytes,bytes))":"dfd1b5f3","safeTransferFrom(address,address,uint256)":"42842e0e","safeTransferFrom(address,address,uint256,bytes)":"b88d4fde","setApprovalForAll(address,bool)":"a22cb465","supportsInterface(bytes4)":"01ffc9a7","symbol()":"95d89b41","task_destination_network()":"97ed0644","tokenURI(uint256)":"c87b56dd","transferFrom(address,address,uint256)":"23b872dd"},"id":35}