{"abi":[{"type":"constructor","inputs":[{"name":"secretGatewaySignerAddr","type":"address","internalType":"address"}],"stateMutability":"nonpayable"},{"type":"function","name":"VRF_routing_code_hash","inputs":[],"outputs":[{"name":"","type":"string","internalType":"string"}],"stateMutability":"view"},{"type":"function","name":"VRF_routing_info","inputs":[],"outputs":[{"name":"","type":"string","internalType":"string"}],"stateMutability":"view"},{"type":"function","name":"increaseTaskId","inputs":[{"name":"_newTaskId","type":"uint256","internalType":"uint256"}],"outputs":[],"stateMutability":"nonpayable"},{"type":"function","name":"initialize","inputs":[],"outputs":[],"stateMutability":"nonpayable"},{"type":"function","name":"owner","inputs":[],"outputs":[{"name":"","type":"address","internalType":"address"}],"stateMutability":"view"},{"type":"function","name":"payoutBalance","inputs":[],"outputs":[],"stateMutability":"nonpayable"},{"type":"function","name":"postExecution","inputs":[{"name":"_taskId","type":"uint256","internalType":"uint256"},{"name":"_sourceNetwork","type":"string","internalType":"string"},{"name":"_info","type":"tuple","internalType":"struct Gateway.PostExecutionInfo","components":[{"name":"payload_hash","type":"bytes32","internalType":"bytes32"},{"name":"packet_hash","type":"bytes32","internalType":"bytes32"},{"name":"callback_address","type":"bytes20","internalType":"bytes20"},{"name":"callback_selector","type":"bytes4","internalType":"bytes4"},{"name":"callback_gas_limit","type":"bytes4","internalType":"bytes4"},{"name":"packet_signature","type":"bytes","internalType":"bytes"},{"name":"result","type":"bytes","internalType":"bytes"}]}],"outputs":[],"stateMutability":"nonpayable"},{"type":"function","name":"renounceOwnership","inputs":[],"outputs":[],"stateMutability":"nonpayable"},{"type":"function","name":"requestRandomness","inputs":[{"name":"_numWords","type":"uint32","internalType":"uint32"},{"name":"_callbackGasLimit","type":"uint32","internalType":"uint32"}],"outputs":[{"name":"requestId","type":"uint256","internalType":"uint256"}],"stateMutability":"payable"},{"type":"function","name":"secret_gateway_signer_address","inputs":[],"outputs":[{"name":"","type":"address","internalType":"address"}],"stateMutability":"view"},{"type":"function","name":"send","inputs":[{"name":"_payloadHash","type":"bytes32","internalType":"bytes32"},{"name":"_userAddress","type":"address","internalType":"address"},{"name":"_routingInfo","type":"string","internalType":"string"},{"name":"_info","type":"tuple","internalType":"struct Gateway.ExecutionInfo","components":[{"name":"user_key","type":"bytes","internalType":"bytes"},{"name":"user_pubkey","type":"bytes","internalType":"bytes"},{"name":"routing_code_hash","type":"string","internalType":"string"},{"name":"task_destination_network","type":"string","internalType":"string"},{"name":"handle","type":"string","internalType":"string"},{"name":"nonce","type":"bytes12","internalType":"bytes12"},{"name":"callback_gas_limit","type":"uint32","internalType":"uint32"},{"name":"payload","type":"bytes","internalType":"bytes"},{"name":"payload_signature","type":"bytes","internalType":"bytes"}]}],"outputs":[{"name":"_taskId","type":"uint256","internalType":"uint256"}],"stateMutability":"payable"},{"type":"function","name":"taskId","inputs":[],"outputs":[{"name":"","type":"uint256","internalType":"uint256"}],"stateMutability":"view"},{"type":"function","name":"task_destination_network","inputs":[],"outputs":[{"name":"","type":"string","internalType":"string"}],"stateMutability":"view"},{"type":"function","name":"tasks","inputs":[{"name":"","type":"uint256","internalType":"uint256"}],"outputs":[{"name":"payload_hash_reduced","type":"bytes31","internalType":"bytes31"},{"name":"completed","type":"bool","internalType":"bool"}],"stateMutability":"view"},{"type":"function","name":"transferOwnership","inputs":[{"name":"newOwner","type":"address","internalType":"address"}],"outputs":[],"stateMutability":"nonpayable"},{"type":"function","name":"upgradeHandler","inputs":[],"outputs":[],"stateMutability":"nonpayable"},{"type":"event","name":"FulfilledRandomWords","inputs":[{"name":"requestId","type":"uint256","indexed":true,"internalType":"uint256"}],"anonymous":false},{"type":"event","name":"Initialized","inputs":[{"name":"version","type":"uint64","indexed":false,"internalType":"uint64"}],"anonymous":false},{"type":"event","name":"OwnershipTransferred","inputs":[{"name":"previousOwner","type":"address","indexed":true,"internalType":"address"},{"name":"newOwner","type":"address","indexed":true,"internalType":"address"}],"anonymous":false},{"type":"event","name":"TaskCompleted","inputs":[{"name":"taskId","type":"uint256","indexed":true,"internalType":"uint256"},{"name":"callbackSuccessful","type":"bool","indexed":false,"internalType":"bool"}],"anonymous":false},{"type":"event","name":"logNewTask","inputs":[{"name":"task_id","type":"uint256","indexed":true,"internalType":"uint256"},{"name":"source_network","type":"string","indexed":false,"internalType":"string"},{"name":"user_address","type":"address","indexed":false,"internalType":"address"},{"name":"routing_info","type":"string","indexed":false,"internalType":"string"},{"name":"payload_hash","type":"bytes32","indexed":false,"internalType":"bytes32"},{"name":"info","type":"tuple","indexed":false,"internalType":"struct Gateway.ExecutionInfo","components":[{"name":"user_key","type":"bytes","internalType":"bytes"},{"name":"user_pubkey","type":"bytes","internalType":"bytes"},{"name":"routing_code_hash","type":"string","internalType":"string"},{"name":"task_destination_network","type":"string","internalType":"string"},{"name":"handle","type":"string","internalType":"string"},{"name":"nonce","type":"bytes12","internalType":"bytes12"},{"name":"callback_gas_limit","type":"uint32","internalType":"uint32"},{"name":"payload","type":"bytes","internalType":"bytes"},{"name":"payload_signature","type":"bytes","internalType":"bytes"}]}],"anonymous":false},{"type":"error","name":"InvalidInitialization","inputs":[]},{"type":"error","name":"NotInitializing","inputs":[]},{"type":"error","name":"OwnableInvalidOwner","inputs":[{"name":"owner","type":"address","internalType":"address"}]},{"type":"error","name":"OwnableUnauthorizedAccount","inputs":[{"name":"account","type":"address","internalType":"address"}]}],"bytecode":{"object":"0x610120604052732821e794b01abf0ce2da0ca171a1fac68fadca066101005234801561002a57600080fd5b506040516130c93803806130c983398101604081905261004991610902565b6100516100c0565b6001600160a01b0381161561006f576001600160a01b038116610100525b600061007a46610172565b805160208083015192935060009182918111156100a9576040850151925060408111156100a957606085015191505b5060809290925260a05260c0525160e05250610932565b7ff0c57e16840df040f15088dc2f81fe391c3923bec73e23a9662efc9c229c6a00805468010000000000000000900460ff16156101105760405163f92ee8a960e01b815260040160405180910390fd5b80546001600160401b039081161461016f5780546001600160401b0319166001600160401b0390811782556040519081527fc7f505b2f371ae2175ee4913f4499e1f2633a7b5936321eed1cdaeb6115181d29060200160405180910390a15b50565b60606c7e37be2022c0914b26800000008210156101bc576000610194836102d4565b6040805160f883901c808252600802610100039290921b602083015281810190529392505050565b793e3aeb4ae1383562f4b82261d969f7ac94ca40000000000000008210156102405760006101e9836102d4565b905060006102066c7e37be2022c0914b2680000000855b046102d4565b905060405192508060f81c601f810184528160088202610100031b60208501528260081b8160200185015250606083016040525050919050565b600061024b836102d4565b905060006102666c7e37be2022c0914b268000000085610200565b9050600061028e793e3aeb4ae1383562f4b82261d969f7ac94ca400000000000000086610200565b905060405193508060f81c603e810185528160088202610100031b60208601528260081b816020018601528360081b81603f018601525060808401604052505050919050565b7e30303030303030303030303030303030303030303030303030303030303030600a80830481900660081b90830601016103e882101561034d576064821061032f578161029002620f000016600360f81b1781019050919050565b600a821061034257600160f91b01919050565b600160f81b01919050565b6020600a612710840406901b6018600a6103e8850406901b6010600a6064860406901b010101620f42408210156103c457620186a082106103a5578162a7c5ad02650f000000000016600360f91b1781019050919050565b61271082106103b957600560f81b01919050565b600160fa1b01919050565b6038600a62989680840406901b6030600a620f4240850406901b6028600a620186a0860406901b010101633b9aca00821015610447576305f5e10082106104275781642af31dc46202680f000000000000000016600960f81b1781019050919050565b62989680821061043c57600160fb1b01919050565b600760f81b01919050565b6050600a6402540be400840406901b6048600a633b9aca00850406901b6040600a6305f5e100860406901b01010164e8d4a510008210156104d75764174876e80082106104b55781660afebff0bcb24b026b0f000000000000000000000016600360fa1b1781019050919050565b6402540be40082106104cc57600b60f81b01919050565b600560f91b01919050565b6068600a6509184e72a000840406901b6060600a64e8d4a51000850406901b6058600a64174876e800860406901b01010166038d7ea4c6800082101561056857655af3107a4000821061054557816802d09370d42573603e02600f60701b16600f60f81b1781019050919050565b6509184e72a000821061055d57600760f91b01919050565b600d60f81b01919050565b6080600a662386f26fc10000840406901b6078600a66038d7ea4c68000850406901b6070600a655af3107a4000860406901b010101670de0b6b3a76400008210156106025767016345785d8a000082106105de578169b877aa3236a4b44909bf02600f60881b16600960f91b1781019050919050565b662386f26fc1000082106105f757601160f81b01919050565b600160fc1b01919050565b6098600a678ac7230489e80000840406901b6090600a670de0b6b3a7640000850406901b6088600a67016345785d8a0000860406901b010101683635c9adc5dea000008210156106a55768056bc75e2d63100000821061068057816b2f394219248446baa23d2ec802600f60a01b16601560f81b1781019050919050565b678ac7230489e80000821061069a57600560fa1b01919050565b601360f81b01919050565b60b0600a69021e19e0c9bab2400000840406901b60a8600a683635c9adc5dea00000850406901b60a0600a68056bc75e2d63100000860406901b01010169d3c21bcecceda10000008210156107525769152d02c7e14af6800000821061072b57816d0c16d9a0095928a2775b7053c0f202600f60b81b16600360fb1b1781019050919050565b69021e19e0c9bab2400000821061074757601760f81b01919050565b600b60f91b01919050565b60c8600a6a084595161401484a000000840406901b60c0600a69d3c21bcecceda1000000850406901b60b8600a69152d02c7e14af6800000860406901b0101016b033b2e3c9fd0803ce8000000821015610808576a52b7d2dcc80cd2e400000082106107e057816f0318481895d962776a54d92bf80caa0702600f60d01b16601b60f81b1781019050919050565b6a084595161401484a00000082106107fd57600d60f91b01919050565b601960f81b01919050565b60e0600a6b204fce5e3e25026110000000840406901b60d8600a6b033b2e3c9fd0803ce8000000850406901b60d0600a6a52b7d2dcc80cd2e4000000860406901b0101016c0c9f2c9cd04674edea400000008210156108c7576c01431e0fae6d7217caa0000000821061089e578170cad2f7f5359a3b3e096ee45813a043306002600f60e81b16600f60f91b1781019050919050565b6b204fce5e3e2502611000000082106108bc57601d60f81b01919050565b600760fa1b01919050565b601f60f81b600a6c01431e0fae6d7217caa0000000840481900660e81b6c0c9f2c9cd04674edea400000009094040660f01b92909201010190565b60006020828403121561091457600080fd5b81516001600160a01b038116811461092b57600080fd5b9392505050565b60805160a05160c05160e051610100516127146109b56000396000818161010a0152610b630152600081816106d90152818161099501526110630152600081816106b801528181610a030152611042015260008181610697015281816109de0152611021015260008181610676015281816109b8015261100001526127146000f3fe6080604052600436106100f35760003560e01c80638d9776721161008a578063c5f3f16e11610059578063c5f3f16e146102af578063e30721a9146102cf578063e58929ac146102e4578063f2fde38b146102f757600080fd5b80638d977672146101ef5780638da5cb5b1461024657806397ed06441461025b578063b910e9ba1461028f57600080fd5b8063373d450c116100c6578063373d450c146101a657806361bf6193146101b2578063715018a6146101c55780638129fc1c146101da57600080fd5b806301d2232e146100f8578063200423321461014957806320b0554e1461016b5780633322b23d14610182575b600080fd5b34801561010457600080fd5b5061012c7f000000000000000000000000000000000000000000000000000000000000000081565b6040516001600160a01b0390911681526020015b60405180910390f35b34801561015557600080fd5b5061015e610317565b6040516101409190611d77565b34801561017757600080fd5b50610180610333565b005b34801561018e57600080fd5b5061019860005481565b604051908152602001610140565b34801561018057600080fd5b6101986101c0366004611da5565b610380565b3480156101d157600080fd5b5061018061076c565b3480156101e657600080fd5b5061018061077e565b3480156101fb57600080fd5b5061022c61020a366004611dd8565b600160205260009081526040902054600881901b90600160f81b900460ff1682565b6040805160ff199093168352901515602083015201610140565b34801561025257600080fd5b5061012c610892565b34801561026757600080fd5b5061015e6040518060400160405280600881526020016770756c7361722d3360c01b81525081565b34801561029b57600080fd5b506101806102aa366004611e3a565b6108c0565b3480156102bb57600080fd5b506101806102ca366004611dd8565b610dcc565b3480156102db57600080fd5b5061015e610e42565b6101986102f2366004611ece565b610e5e565b34801561030357600080fd5b50610180610312366004611f5f565b6110de565b6040518060600160405280604081526020016126326040913981565b61033b611119565b610343610892565b6001600160a01b03166108fc479081150290604051600060405180830381858888f1935050505015801561037b573d6000803e3d6000fd5b50565b565b6000546107d063ffffffff841611156103e05760405162461bcd60e51b815260206004820152601f60248201527f546f6f204d616e792072616e646f6d20776f726473205265717565737465640060448201526064015b60405180910390fd5b60006103eb8361114b565b90508034111561043157326108fc6104038334611f90565b6040518115909202916000818181858888f1935050505015801561042b573d6000803e3d6000fd5b5061047d565b8034101561047d5760405162461bcd60e51b8152602060048201526019602482015278506169642043616c6c6261636b2046656520546f6f204c6f7760381b60448201526064016103d7565b600061048e8563ffffffff16611163565b6040518060600160405280602d8152602001612672602d9139604051806060016040528060408152602001612632604091396040516020016104d1929190611fa3565b6040516020818303038152906040526104e9336112bc565b6104f88763ffffffff16611163565b60405160200161050b949392919061206b565b60408051601f198184030181528282527f19457468657265756d205369676e6564204d6573736167653a0a333200000000835280516020820120601c840152603c83209282019091529150600060405180604001604052806002815260200160008152509050600060405180610120016040528083815260200183815260200160405180606001604052806040815260200161263260409139815260408051808201825260088082526770756c7361722d3360c01b6020838101919091528085019290925282518084018452600e81526d726571756573745f72616e646f6d60901b818401528385015260006060850181905263ffffffff8d16608086015260a085018a905260c09094018790528251808401845260ff19891681528083018581528c8652600190935292909320915190511515600160f81b02921c9190911790559050857fcbe4f092e5306d17b59541c5717bc1ec67f296e16d46150a0103ec02af816e2e61071d7f00000000000000000000000000000000000000000000000000000000000000007f00000000000000000000000000000000000000000000000000000000000000007f00000000000000000000000000000000000000000000000000000000000000007f00000000000000000000000000000000000000000000000000000000000000006040805191825260208201949094528084019290925260608201526080810190915290565b326040518060600160405280602d8152602001612672602d9139878660405161074a959493929190612141565b60405180910390a261075d866001612279565b60005550939695505050505050565b610774611119565b61037e60006114c4565b7ff0c57e16840df040f15088dc2f81fe391c3923bec73e23a9662efc9c229c6a008054600160401b810460ff16159067ffffffffffffffff166000811580156107c45750825b905060008267ffffffffffffffff1660011480156107e15750303b155b9050811580156107ef575080155b1561080d5760405163f92ee8a960e01b815260040160405180910390fd5b845467ffffffffffffffff19166001178555831561083757845460ff60401b1916600160401b1785555b61084033611535565b6001600055831561088b57845460ff60401b19168555604051600181527fc7f505b2f371ae2175ee4913f4499e1f2633a7b5936321eed1cdaeb6115181d29060200160405180910390a15b5050505050565b7f9016d09d72d40fdae2fd8ceac6b6234c7706214fd39c1cd1e609a0528c199300546001600160a01b031690565b60008481526001602090815260409182902082518084019093525460ff19600882901b168352600160f81b900460ff161580159183019190915261093f5760405162461bcd60e51b815260206004820152601660248201527515185cdac8105b1c9958591e4810dbdb5c1b195d195960521b60448201526064016103d7565b8051823560ff1990811691161461098f5760405162461bcd60e51b8152602060048201526014602482015273092dcecc2d8d2c840a0c2f2d8dec2c84090c2e6d60631b60448201526064016103d7565b604080517f000000000000000000000000000000000000000000000000000000000000000081527f000000000000000000000000000000000000000000000000000000000000000060208201527f0000000000000000000000000000000000000000000000000000000000000000818301527f000000000000000000000000000000000000000000000000000000000000000060608201526080810190915260009085908590610a3e89611163565b8635610a4d60c089018961228c565b610a5d60608b0160408c016122d3565b610a6d60808c0160608d01612302565b604051602001610a859998979695949392919061232c565b6040516020818303038152906040529050600060028280519060200120604051602001610ab491815260200190565b60408051601f1981840301815290829052610ace916123a3565b602060405180830381855afa158015610aeb573d6000803e3d6000fd5b5050506040513d601f19601f82011682018060405250810190610b0e91906123bf565b905083602001358114610b595760405162461bcd60e51b8152602060048201526013602482015272092dcecc2d8d2c840a0c2c6d6cae84090c2e6d606b1b60448201526064016103d7565b6001600160a01b037f000000000000000000000000000000000000000000000000000000000000000016610b9982610b9460a088018861228c565b611546565b6001600160a01b031614610bef5760405162461bcd60e51b815260206004820152601860248201527f496e76616c6964205061636b6574205369676e6174757265000000000000000060448201526064016103d7565b600087815260016020526040812080546001600160f81b0316600160f81b179055610c206080860160608701612302565b6001600160e01b031916630e2e918560e21b03610cec57610c4760608601604087016122d3565b60601c610c68630e2e918560e21b8a610c6360c08a018a61228c565b6115e4565b604051610c7591906123a3565b6000604051808303816000865af19150503d8060008114610cb2576040519150601f19603f3d011682016040523d82523d6000602084013e610cb7565b606091505b505060405190915088907f694c4f415e7825e674696f676bc2eb71b76e32abb31e81b98ace7f96943a4f9390600090a2610d86565b610cfc60608601604087016122d3565b60601c6001600160a01b0316610d31866060016020810190610d1e9190612302565b8a610d2c60c08a018a61228c565b611673565b604051610d3e91906123a3565b6000604051808303816000865af19150503d8060008114610d7b576040519150601f19603f3d011682016040523d82523d6000602084013e610d80565b606091505b50909150505b877fe21fa966ca5cd02748c0752352d18c48165e61cb55b4c29cccf924b5a95fcff182604051610dba911515815260200190565b60405180910390a25050505050505050565b610dd4611119565b6000548111610e3d5760405162461bcd60e51b815260206004820152602f60248201527f4e6577207461736b206964206d75737420626520686967686572207468616e2060448201526e1d1a19481bdb19081d185cdad7da59608a1b60648201526084016103d7565b600055565b6040518060600160405280602d8152602001612672602d913981565b6000805490610e7b610e7660e0850160c086016123d8565b61114b565b905080341115610ec157326108fc610e938334611f90565b6040518115909202916000818181858888f19350505050158015610ebb573d6000803e3d6000fd5b50610f0d565b80341015610f0d5760405162461bcd60e51b8152602060048201526019602482015278506169642043616c6c6261636b2046656520546f6f204c6f7760381b60448201526064016103d7565b86610f58610f1e60e086018661228c565b8080601f01602080910402602001604051908101604052809392919081815260200183838082843760009201919091525061148192505050565b14610f9c5760405162461bcd60e51b8152602060048201526014602482015273092dcecc2d8d2c840a0c2f2d8dec2c84090c2e6d60631b60448201526064016103d7565b60408051808201825260ff1989168152600060208083018281528683526001909152929020905191511515600160f81b0260089290921c919091179055817fcbe4f092e5306d17b59541c5717bc1ec67f296e16d46150a0103ec02af816e2e6110a77f00000000000000000000000000000000000000000000000000000000000000007f00000000000000000000000000000000000000000000000000000000000000007f00000000000000000000000000000000000000000000000000000000000000007f00000000000000000000000000000000000000000000000000000000000000006040805191825260208201949094528084019290925260608201526080810190915290565b8888888c896040516110be9695949392919061247a565b60405180910390a26110d1826001612279565b6000555095945050505050565b6110e6611119565b6001600160a01b03811661111057604051631e4fbdf760e01b8152600060048201526024016103d7565b61037b816114c4565b33611122610892565b6001600160a01b03161461037e5760405163118cdaa760e01b81523360048201526024016103d7565b600061115d3a63ffffffff84166125f8565b92915050565b60606c7e37be2022c0914b26800000008210156111ad576000611185836116b0565b6040805160f883901c808252600802610100039290921b602083015281810190529392505050565b71f8ebad2b84e0d58bd2e0898765a7deb25329603e1b82101561122c5760006111d5836116b0565b905060006111f26c7e37be2022c0914b2680000000855b046116b0565b905060405192508060f81c601f810184528160088202610100031b60208501528260081b8160200185015250606083016040525050919050565b6000611237836116b0565b905060006112526c7e37be2022c0914b2680000000856111ec565b9050600061127571f8ebad2b84e0d58bd2e0898765a7deb25329603e1b866111ec565b905060405193508060f81c603e810185528160088202610100031b60208601528260081b816020018601528360081b81603f0186015250608084016040525050505b919050565b60008060405180606001604052806040815260200161269f60409139905060005160018201915083609a1c8201518153603f8460941c168201516001820153603f84608e1c168201516002820153603f8460881c168201516003820153603f8460821c168201516004820153603f84607c1c168201516005820153603f8460761c168201516006820153603f8460701c168201516007820153603f84606a1c168201516008820153603f8460641c168201516009820153603f84605e1c16820151600a820153603f8460581c16820151600b820153603f8460521c16820151600c820153603f84604c1c16820151600d820153603f8460461c16820151600e820153603f8460401c16820151600f820153603f84603a1c168201516010820153603f8460341c168201516011820153603f84602e1c168201516012820153603f8460281c168201516013820153603f8460221c168201516014820153603f84601c1c168201516015820153603f8460161c168201516016820153603f8460101c168201516017820153603f84600a1c168201516018820153603f8460041c168201516019820153603f8460021b16820151601a820153603d601b820153519392505050565b604080517f19457468657265756d205369676e6564204d6573736167653a0a33320000000081528251602090930192909220601c830152603c8220918101905290565b7f9016d09d72d40fdae2fd8ceac6b6234c7706214fd39c1cd1e609a0528c19930080546001600160a01b031981166001600160a01b03848116918217845560405192169182907f8be0079c531659141344cd1fd0a4f28419497f9722a3daafe3b4186f6b6457e090600090a3505050565b61153d611cd6565b61037b81611d1f565b6000604182146115985760405162461bcd60e51b815260206004820152601860248201527f496e76616c6964205369676e6174757265204c656e677468000000000000000060448201526064016103d7565b604051848152604084013560001a6020820152600084013560408201526020840135606082015260208160808360015afa6115d257600080fd5b80516080909101604052949350505050565b60606115f160208361260f565b156116355760405162461bcd60e51b8152602060048201526014602482015273092dcecc2d8d2c84084f2e8cae64098cadccee8d60631b60448201526064016103d7565b604051905081606401815284602082015283602482015260406044820152602082046064820152818360848301379081016084016040529392505050565b6060604051905081606401815284602082015283602482015260406044820152816064820152818360848301379081016084016040529392505050565b7e30303030303030303030303030303030303030303030303030303030303030600a80830481900660081b90830601016103e8821015611729576064821061170b578161029002620f000016600360f81b1781019050919050565b600a821061171e57600160f91b01919050565b600160f81b01919050565b6020600a612710840406901b6018600a6103e8850406901b6010600a6064860406901b010101620f42408210156117a057620186a08210611781578162a7c5ad02650f000000000016600360f91b1781019050919050565b612710821061179557600560f81b01919050565b600160fa1b01919050565b6038600a62989680840406901b6030600a620f4240850406901b6028600a620186a0860406901b010101633b9aca00821015611823576305f5e10082106118035781642af31dc46202680f000000000000000016600960f81b1781019050919050565b62989680821061181857600160fb1b01919050565b600760f81b01919050565b6050600a6402540be400840406901b6048600a633b9aca00850406901b6040600a6305f5e100860406901b01010164e8d4a510008210156118ab5764174876e80082106118895781660afebff0bcb24b02600f60581b16600360fa1b1781019050919050565b6402540be40082106118a057600b60f81b01919050565b600560f91b01919050565b6068600a6509184e72a000840406901b6060600a64e8d4a51000850406901b6058600a64174876e800860406901b01010166038d7ea4c6800082101561193c57655af3107a4000821061191957816802d09370d42573603e02600f60701b16600f60f81b1781019050919050565b6509184e72a000821061193157600760f91b01919050565b600d60f81b01919050565b6080600a662386f26fc10000840406901b6078600a66038d7ea4c68000850406901b6070600a655af3107a4000860406901b010101670de0b6b3a76400008210156119d65767016345785d8a000082106119b2578169b877aa3236a4b44909bf02600f60881b16600960f91b1781019050919050565b662386f26fc1000082106119cb57601160f81b01919050565b600160fc1b01919050565b6098600a678ac7230489e80000840406901b6090600a670de0b6b3a7640000850406901b6088600a67016345785d8a0000860406901b010101683635c9adc5dea00000821015611a795768056bc75e2d631000008210611a5457816b2f394219248446baa23d2ec802600f60a01b16601560f81b1781019050919050565b678ac7230489e800008210611a6e57600560fa1b01919050565b601360f81b01919050565b60b0600a69021e19e0c9bab2400000840406901b60a8600a683635c9adc5dea00000850406901b60a0600a68056bc75e2d63100000860406901b01010169d3c21bcecceda1000000821015611b265769152d02c7e14af68000008210611aff57816d0c16d9a0095928a2775b7053c0f202600f60b81b16600360fb1b1781019050919050565b69021e19e0c9bab24000008210611b1b57601760f81b01919050565b600b60f91b01919050565b60c8600a6a084595161401484a000000840406901b60c0600a69d3c21bcecceda1000000850406901b60b8600a69152d02c7e14af6800000860406901b0101016b033b2e3c9fd0803ce8000000821015611bdc576a52b7d2dcc80cd2e40000008210611bb457816f0318481895d962776a54d92bf80caa0702600f60d01b16601b60f81b1781019050919050565b6a084595161401484a0000008210611bd157600d60f91b01919050565b601960f81b01919050565b60e0600a6b204fce5e3e25026110000000840406901b60d8600a6b033b2e3c9fd0803ce8000000850406901b60d0600a6a52b7d2dcc80cd2e4000000860406901b0101016c0c9f2c9cd04674edea40000000821015611c9b576c01431e0fae6d7217caa00000008210611c72578170cad2f7f5359a3b3e096ee45813a043306002600f60e81b16600f60f91b1781019050919050565b6b204fce5e3e250261100000008210611c9057601d60f81b01919050565b600760fa1b01919050565b601f60f81b600a6c01431e0fae6d7217caa0000000840481900660e81b6c0c9f2c9cd04674edea400000009094040660f01b92909201010190565b7ff0c57e16840df040f15088dc2f81fe391c3923bec73e23a9662efc9c229c6a0054600160401b900460ff1661037e57604051631afcd79f60e31b815260040160405180910390fd5b6110e6611cd6565b60005b83811015611d42578181015183820152602001611d2a565b50506000910152565b60008151808452611d63816020860160208601611d27565b601f01601f19169290920160200192915050565b602081526000611d8a6020830184611d4b565b9392505050565b803563ffffffff811681146112b757600080fd5b60008060408385031215611db857600080fd5b611dc183611d91565b9150611dcf60208401611d91565b90509250929050565b600060208284031215611dea57600080fd5b5035919050565b60008083601f840112611e0357600080fd5b50813567ffffffffffffffff811115611e1b57600080fd5b602083019150836020828501011115611e3357600080fd5b9250929050565b60008060008060608587031215611e5057600080fd5b84359350602085013567ffffffffffffffff811115611e6e57600080fd5b611e7a87828801611df1565b909450925050604085013567ffffffffffffffff811115611e9a57600080fd5b850160e08188031215611eac57600080fd5b939692955090935050565b80356001600160a01b03811681146112b757600080fd5b600080600080600060808688031215611ee657600080fd5b85359450611ef660208701611eb7565b9350604086013567ffffffffffffffff811115611f1257600080fd5b611f1e88828901611df1565b909450925050606086013567ffffffffffffffff811115611f3e57600080fd5b86016101208189031215611f5157600080fd5b809150509295509295909350565b600060208284031215611f7157600080fd5b611d8a82611eb7565b634e487b7160e01b600052601160045260246000fd5b8181038181111561115d5761115d611f7a565b723e9116113937baba34b733afb4b73337911d1160691b81528251600090611fd2816013850160208801611d27565b7f222c22726f7574696e675f636f64655f68617368223a22000000000000000000601391840191820152835161200f81602a840160208801611d27565b7f222c22757365725f61646472657373223a22307830303030222c22757365725f602a92909101918201527f6b6579223a224141413d222c2263616c6c6261636b5f61646472657373223a22604a820152606a01949350505050565b7f7b2264617461223a227b5c226e756d576f7264735c223a0000000000000000008152600085516120a3816017850160208a01611d27565b8551908301906120ba816017840160208a01611d27565b63ffffffff1986169101601781019182527f222c2263616c6c6261636b5f73656c6563746f72223a224f4c704746413d3d22603382015275161131b0b6363130b1b5afb3b0b9afb634b6b4ba111d60511b605382015284519061212590829060690160208801611d27565b607d60f81b605292909101918201526053019695505050505050565b60a08152600061215460a0830188611d4b565b6001600160a01b038716602084015282810360408401526121758187611d4b565b905084606084015282810360808401528351610120825261219a610120830182611d4b565b9050602085015182820360208401526121b38282611d4b565b915050604085015182820360408401526121cd8282611d4b565b915050606085015182820360608401526121e78282611d4b565b915050608085015182820360808401526122018282611d4b565b91505060a085015161221f60a08401826001600160a01b0319169052565b5060c085015161223760c084018263ffffffff169052565b5060e085015182820360e084015261224f8282611d4b565b91505061010085015182820361010084015261226b8282611d4b565b9a9950505050505050505050565b8082018082111561115d5761115d611f7a565b6000808335601e198436030181126122a357600080fd5b83018035915067ffffffffffffffff8211156122be57600080fd5b602001915036819003821315611e3357600080fd5b6000602082840312156122e557600080fd5b81356bffffffffffffffffffffffff1981168114611d8a57600080fd5b60006020828403121561231457600080fd5b81356001600160e01b031981168114611d8a57600080fd5b888a82376000898201600081528951612349818360208e01611d27565b895191019061235c818360208d01611d27565b01878152858760208301376bffffffffffffffffffffffff1994909416949093016020810194909452506001600160e01b0319166034830152506038019695505050505050565b600082516123b5818460208701611d27565b9190910192915050565b6000602082840312156123d157600080fd5b5051919050565b6000602082840312156123ea57600080fd5b611d8a82611d91565b81835281816020850137506000828201602090810191909152601f909101601f19169091010190565b6000808335601e1984360301811261243357600080fd5b830160208101925035905067ffffffffffffffff81111561245357600080fd5b803603821315611e3357600080fd5b80356001600160a01b0319811681146112b757600080fd5b60a08152600061248d60a0830189611d4b565b6001600160a01b038816602084015282810360408401526124af8187896123f3565b905084606084015282810360808401526124c9848561241c565b61012083526124dd610120840182846123f3565b9150506124ed602086018661241c565b83830360208501526125008382846123f3565b92505050612511604086018661241c565b83830360408501526125248382846123f3565b92505050612535606086018661241c565b83830360608501526125488382846123f3565b92505050612559608086018661241c565b838303608085015261256c8382846123f3565b9250505061257c60a08601612462565b6001600160a01b03191660a083015261259760c08601611d91565b63ffffffff1660c08301526125af60e086018661241c565b83830360e08501526125c28382846123f3565b925050506125d461010086018661241c565b8383036101008501526125e88382846123f3565b9c9b505050505050505050505050565b808202811582820484141761115d5761115d611f7a565b60008261262c57634e487b7160e01b600052601260045260246000fd5b50069056fe34396666656430646634353136323261633138363537313033383063313464346166393864636132643332333432626232306632623232666163613364303064736563726574313670636a616c667579373272346b323672346b6e35663578363472757a7633306b6e666c77784142434445464748494a4b4c4d4e4f505152535455565758595a6162636465666768696a6b6c6d6e6f707172737475767778797a303132333435363738392b2fa26469706673582212203b915c7e18c89cca501b7984dbab67992c28edcfe4099e3a574fe88d57b89a3864736f6c634300081a0033","linkReferences":{}},"methodIdentifiers":{"VRF_routing_code_hash()":"20042332","VRF_routing_info()":"e30721a9","increaseTaskId(uint256)":"c5f3f16e","initialize()":"8129fc1c","owner()":"8da5cb5b","payoutBalance()":"20b0554e","postExecution(uint256,string,(bytes32,bytes32,bytes20,bytes4,bytes4,bytes,bytes))":"b910e9ba","renounceOwnership()":"715018a6","requestRandomness(uint32,uint32)":"61bf6193","secret_gateway_signer_address()":"01d2232e","send(bytes32,address,string,(bytes,bytes,string,string,string,bytes12,uint32,bytes,bytes))":"e58929ac","taskId()":"3322b23d","task_destination_network()":"97ed0644","tasks(uint256)":"8d977672","transferOwnership(address)":"f2fde38b","upgradeHandler()":"373d450c"},"id":36}